{
  "contractName": "FlightSuretyData",
  "abi": [
    {
      "constant": true,
      "inputs": [],
      "name": "airlineCount",
      "outputs": [
        {
          "name": "",
          "type": "uint256"
        }
      ],
      "payable": false,
      "stateMutability": "view",
      "type": "function"
    },
    {
      "inputs": [
        {
          "name": "firstAirline",
          "type": "address"
        }
      ],
      "payable": false,
      "stateMutability": "nonpayable",
      "type": "constructor"
    },
    {
      "payable": true,
      "stateMutability": "payable",
      "type": "fallback"
    },
    {
      "constant": true,
      "inputs": [],
      "name": "isOperational",
      "outputs": [
        {
          "name": "",
          "type": "bool"
        }
      ],
      "payable": false,
      "stateMutability": "view",
      "type": "function"
    },
    {
      "constant": false,
      "inputs": [
        {
          "name": "mode",
          "type": "bool"
        }
      ],
      "name": "setOperatingStatus",
      "outputs": [],
      "payable": false,
      "stateMutability": "nonpayable",
      "type": "function"
    },
    {
      "constant": false,
      "inputs": [
        {
          "name": "newAirline",
          "type": "address"
        }
      ],
      "name": "registerAirline",
      "outputs": [
        {
          "name": "",
          "type": "bool"
        }
      ],
      "payable": false,
      "stateMutability": "nonpayable",
      "type": "function"
    },
    {
      "constant": false,
      "inputs": [
        {
          "name": "airline",
          "type": "address"
        }
      ],
      "name": "fundAirline",
      "outputs": [],
      "payable": false,
      "stateMutability": "nonpayable",
      "type": "function"
    },
    {
      "constant": true,
      "inputs": [
        {
          "name": "airline",
          "type": "address"
        }
      ],
      "name": "isAirlineRegistered",
      "outputs": [
        {
          "name": "",
          "type": "bool"
        }
      ],
      "payable": false,
      "stateMutability": "view",
      "type": "function"
    },
    {
      "constant": true,
      "inputs": [
        {
          "name": "airline",
          "type": "address"
        }
      ],
      "name": "isAirlineFunded",
      "outputs": [
        {
          "name": "",
          "type": "bool"
        }
      ],
      "payable": false,
      "stateMutability": "view",
      "type": "function"
    },
    {
      "constant": true,
      "inputs": [],
      "name": "getAirlineCount",
      "outputs": [
        {
          "name": "",
          "type": "uint256"
        }
      ],
      "payable": false,
      "stateMutability": "view",
      "type": "function"
    },
    {
      "constant": false,
      "inputs": [
        {
          "name": "airline",
          "type": "address"
        },
        {
          "name": "flight",
          "type": "string"
        },
        {
          "name": "timestamp",
          "type": "uint256"
        }
      ],
      "name": "registerFlight",
      "outputs": [],
      "payable": false,
      "stateMutability": "nonpayable",
      "type": "function"
    },
    {
      "constant": true,
      "inputs": [
        {
          "name": "airline",
          "type": "address"
        },
        {
          "name": "flight",
          "type": "string"
        },
        {
          "name": "timestamp",
          "type": "uint256"
        }
      ],
      "name": "isFlightRegistered",
      "outputs": [
        {
          "name": "",
          "type": "bool"
        }
      ],
      "payable": false,
      "stateMutability": "view",
      "type": "function"
    },
    {
      "constant": false,
      "inputs": [
        {
          "name": "airline",
          "type": "address"
        },
        {
          "name": "flight",
          "type": "string"
        },
        {
          "name": "timestamp",
          "type": "uint256"
        }
      ],
      "name": "buy",
      "outputs": [],
      "payable": true,
      "stateMutability": "payable",
      "type": "function"
    },
    {
      "constant": true,
      "inputs": [
        {
          "name": "airline",
          "type": "address"
        },
        {
          "name": "flight",
          "type": "string"
        },
        {
          "name": "timestamp",
          "type": "uint256"
        }
      ],
      "name": "isInsurancePurchased",
      "outputs": [
        {
          "name": "",
          "type": "bool"
        }
      ],
      "payable": false,
      "stateMutability": "view",
      "type": "function"
    },
    {
      "constant": true,
      "inputs": [],
      "name": "creditInsurees",
      "outputs": [],
      "payable": false,
      "stateMutability": "pure",
      "type": "function"
    },
    {
      "constant": true,
      "inputs": [],
      "name": "pay",
      "outputs": [],
      "payable": false,
      "stateMutability": "pure",
      "type": "function"
    },
    {
      "constant": false,
      "inputs": [],
      "name": "fund",
      "outputs": [],
      "payable": true,
      "stateMutability": "payable",
      "type": "function"
    }
  ],
  "bytecode": "0x60806040526001600060146101000a81548160ff02191690831515021790555034801561002b57600080fd5b5060405160208061123e83398101806040528101908080519060200190929190505050336000806101000a81548173ffffffffffffffffffffffffffffffffffffffff021916908373ffffffffffffffffffffffffffffffffffffffff160217905550604080519081016040528060011515815260200160001515815250600160008373ffffffffffffffffffffffffffffffffffffffff1673ffffffffffffffffffffffffffffffffffffffff16815260200190815260200160002060008201518160000160006101000a81548160ff02191690831515021790555060208201518160000160016101000a81548160ff0219169083151502179055509050506001600281905550506110fb806101436000396000f3006080604052600436106100db576000357c0100000000000000000000000000000000000000000000000000000000900463ffffffff168063010c5c97146100e5578063110466ed146101405780631b9265b81461016f578063241a53cb1461018657806328420fee1461023157806336cee484146102dc5780633cc0be9c146102f35780636fbb8798146103585780637f9e18081461039b578063b1c46d22146103c6578063b60d42881461041e578063bdfd987714610428578063cd905dff14610483578063f53b6d65146104b2578063f55267741461050d575b6100e3610538565b005b3480156100f157600080fd5b50610126600480360381019080803573ffffffffffffffffffffffffffffffffffffffff16906020019092919050505061053a565b604051808215151515815260200191505060405180910390f35b34801561014c57600080fd5b5061016d600480360381019080803515159060200190929190505050610593565b005b34801561017b57600080fd5b50610184610674565b005b34801561019257600080fd5b50610217600480360381019080803573ffffffffffffffffffffffffffffffffffffffff169060200190929190803590602001908201803590602001908080601f016020809104026020016040519081016040528093929190818152602001838380828437820191505050505050919291929080359060200190929190505050610676565b604051808215151515815260200191505060405180910390f35b34801561023d57600080fd5b506102c2600480360381019080803573ffffffffffffffffffffffffffffffffffffffff169060200190929190803590602001908201803590602001908080601f0160208091040260200160405190810160405280939291908181526020018383808284378201915050505050509192919290803590602001909291905050506106bc565b604051808215151515815260200191505060405180910390f35b3480156102e857600080fd5b506102f1610702565b005b3480156102ff57600080fd5b50610356600480360381019080803573ffffffffffffffffffffffffffffffffffffffff16906020019092919080359060200190820180359060200191909192939192939080359060200190929190505050610704565b005b34801561036457600080fd5b50610399600480360381019080803573ffffffffffffffffffffffffffffffffffffffff1690602001909291905050506109ab565b005b3480156103a757600080fd5b506103b0610ab2565b6040518082815260200191505060405180910390f35b61041c600480360381019080803573ffffffffffffffffffffffffffffffffffffffff16906020019092919080359060200190820180359060200191909192939192939080359060200190929190505050610abc565b005b610426610538565b005b34801561043457600080fd5b50610469600480360381019080803573ffffffffffffffffffffffffffffffffffffffff169060200190929190505050610c9a565b604051808215151515815260200191505060405180910390f35b34801561048f57600080fd5b50610498610f35565b604051808215151515815260200191505060405180910390f35b3480156104be57600080fd5b506104f3600480360381019080803573ffffffffffffffffffffffffffffffffffffffff169060200190929190505050610f4b565b604051808215151515815260200191505060405180910390f35b34801561051957600080fd5b50610522610fa4565b6040518082815260200191505060405180910390f35b565b6000600160008373ffffffffffffffffffffffffffffffffffffffff1673ffffffffffffffffffffffffffffffffffffffff16815260200190815260200160002060000160009054906101000a900460ff169050919050565b6000809054906101000a900473ffffffffffffffffffffffffffffffffffffffff1673ffffffffffffffffffffffffffffffffffffffff163373ffffffffffffffffffffffffffffffffffffffff16141515610657576040517f08c379a000000000000000000000000000000000000000000000000000000000815260040180806020018281038252601c8152602001807f43616c6c6572206973206e6f7420636f6e7472616374206f776e65720000000081525060200191505060405180910390fd5b80600060146101000a81548160ff02191690831515021790555050565b565b600080610684858585610faa565b905060036000826000191660001916815260200190815260200160002060000160009054906101000a900460ff169150509392505050565b6000806106ca858585610faa565b905060046000826000191660001916815260200190815260200160002060020160009054906101000a900460ff169150509392505050565b565b60008060149054906101000a900460ff1615156107af576040517f08c379a00000000000000000000000000000000000000000000000000000000081526004018080602001828103825260258152602001807f436f6e74726163742069732063757272656e746c79206e6f74206f706572617481526020017f696f6e616c00000000000000000000000000000000000000000000000000000081525060400191505060405180910390fd5b6107ec8585858080601f01602080910402602001604051908101604052809392919081815260200183838082843782019150505050505084610faa565b905060036000826000191660001916815260200190815260200160002060000160009054906101000a900460ff161515156108b5576040517f08c379a00000000000000000000000000000000000000000000000000000000081526004018080602001828103825260238152602001807f466c696768742068617320616c7265616479206265656e20726567697374657281526020017f65642e000000000000000000000000000000000000000000000000000000000081525060400191505060405180910390fd5b608060405190810160405280600115158152602001600060ff1681526020018381526020018673ffffffffffffffffffffffffffffffffffffffff1681525060036000836000191660001916815260200190815260200160002060008201518160000160006101000a81548160ff02191690831515021790555060208201518160000160016101000a81548160ff021916908360ff1602179055506040820151816001015560608201518160020160006101000a81548173ffffffffffffffffffffffffffffffffffffffff021916908373ffffffffffffffffffffffffffffffffffffffff1602179055509050505050505050565b600060149054906101000a900460ff161515610a55576040517f08c379a00000000000000000000000000000000000000000000000000000000081526004018080602001828103825260258152602001807f436f6e74726163742069732063757272656e746c79206e6f74206f706572617481526020017f696f6e616c00000000000000000000000000000000000000000000000000000081525060400191505060405180910390fd5b60018060008373ffffffffffffffffffffffffffffffffffffffff1673ffffffffffffffffffffffffffffffffffffffff16815260200190815260200160002060000160016101000a81548160ff02191690831515021790555050565b6000600254905090565b60008060149054906101000a900460ff161515610b67576040517f08c379a00000000000000000000000000000000000000000000000000000000081526004018080602001828103825260258152602001807f436f6e74726163742069732063757272656e746c79206e6f74206f706572617481526020017f696f6e616c00000000000000000000000000000000000000000000000000000081525060400191505060405180910390fd5b610ba48585858080601f01602080910402602001604051908101604052809392919081815260200183838082843782019150505050505084610faa565b90506080604051908101604052803373ffffffffffffffffffffffffffffffffffffffff1681526020013481526020016001151581526020016000151581525060046000836000191660001916815260200190815260200160002060008201518160000160006101000a81548173ffffffffffffffffffffffffffffffffffffffff021916908373ffffffffffffffffffffffffffffffffffffffff1602179055506020820151816001015560408201518160020160006101000a81548160ff02191690831515021790555060608201518160020160016101000a81548160ff0219169083151502179055509050505050505050565b60008060149054906101000a900460ff161515610d45576040517f08c379a00000000000000000000000000000000000000000000000000000000081526004018080602001828103825260258152602001807f436f6e74726163742069732063757272656e746c79206e6f74206f706572617481526020017f696f6e616c00000000000000000000000000000000000000000000000000000081525060400191505060405180910390fd5b600160008373ffffffffffffffffffffffffffffffffffffffff1673ffffffffffffffffffffffffffffffffffffffff16815260200190815260200160002060000160009054906101000a900460ff16151515610e30576040517f08c379a000000000000000000000000000000000000000000000000000000000815260040180806020018281038252602b8152602001807f4572726f723a204169726c696e652068617320616c7265616479206265656e2081526020017f726567697374657265642e00000000000000000000000000000000000000000081525060400191505060405180910390fd5b604080519081016040528060011515815260200160001515815250600160008473ffffffffffffffffffffffffffffffffffffffff1673ffffffffffffffffffffffffffffffffffffffff16815260200190815260200160002060008201518160000160006101000a81548160ff02191690831515021790555060208201518160000160016101000a81548160ff0219169083151502179055509050506001600260008282540192505081905550600160008373ffffffffffffffffffffffffffffffffffffffff1673ffffffffffffffffffffffffffffffffffffffff16815260200190815260200160002060000160009054906101000a900460ff169050919050565b60008060149054906101000a900460ff16905090565b6000600160008373ffffffffffffffffffffffffffffffffffffffff1673ffffffffffffffffffffffffffffffffffffffff16815260200190815260200160002060000160019054906101000a900460ff169050919050565b60025481565b6000838383604051602001808473ffffffffffffffffffffffffffffffffffffffff1673ffffffffffffffffffffffffffffffffffffffff166c0100000000000000000000000002815260140183805190602001908083835b6020831015156110285780518252602082019150602081019050602083039250611003565b6001836020036101000a03801982511681845116808217855250505050505090500182815260200193505050506040516020818303038152906040526040518082805190602001908083835b6020831015156110995780518252602082019150602081019050602083039250611074565b6001836020036101000a0380198251168184511680821785525050505050509050019150506040518091039020905093925050505600a165627a7a72305820105639071e8ae9a628faa0df928fdda17b08a66befa94e37c339e6dbfc1d501b0029",
  "source": "pragma solidity ^0.4.25;\n\nimport \"../node_modules/openzeppelin-solidity/contracts/math/SafeMath.sol\";\n\ncontract FlightSuretyData {\n    using SafeMath for uint256;\n\n    /********************************************************************************************/\n    /*                                       DATA VARIABLES                                     */\n    /********************************************************************************************/\n\n    address private contractOwner;                                      // Account used to deploy contract\n    bool private operational = true;                                    // Blocks all state changes throughout the contract if false\n\n\n    // Airline Datastructures\n    struct Airline {\n        bool isRegistered;\n        bool isFunded;\n    }\n\n    mapping(address => Airline) private airlines;\n    uint256 public airlineCount;\n\n    // Flight Datastructures\n    struct Flight {\n        bool isRegistered;\n        uint8 statusCode;\n        uint256 updatedTimestamp;\n        address airline;\n    }\n\n    mapping(bytes32 => Flight) private flights;\n\n    // Insurance Datastructures\n    struct FlightInsurance {\n        address insuree;\n        uint256 amount;\n        bool purchased;\n        bool creditied;\n    }\n\n    mapping(bytes32 => FlightInsurance) private passengerInsurances;\n    mapping(address => uint256) private credits;\n\n    /********************************************************************************************/\n    /*                                       EVENT DEFINITIONS                                  */\n    /********************************************************************************************/\n\n\n    /**\n    * @dev Constructor\n    *      The deploying account becomes contractOwner\n    */\n    constructor\n                                (\n                                    address firstAirline\n                                )\n                                public\n    {\n        contractOwner = msg.sender;\n        // Instantiate first Airline\n        airlines[firstAirline] = Airline({\n            isRegistered: true,\n            isFunded: false\n        });\n        // Instantiate Airline count\n        airlineCount = 1;\n    }\n\n    /********************************************************************************************/\n    /*                                       FUNCTION MODIFIERS                                 */\n    /********************************************************************************************/\n\n    // Modifiers help avoid duplication of code. They are typically used to validate something\n    // before a function is allowed to be executed.\n\n    /**\n    * @dev Modifier that requires the \"operational\" boolean variable to be \"true\"\n    *      This is used on all state changing functions to pause the contract in \n    *      the event there is an issue that needs to be fixed\n    */\n    modifier requireIsOperational() \n    {\n        require(operational, \"Contract is currently not operational\");\n        _;  // All modifiers require an \"_\" which indicates where the function body will be added\n    }\n\n    /**\n    * @dev Modifier that requires the \"ContractOwner\" account to be the function caller\n    */\n    modifier requireContractOwner()\n    {\n        require(msg.sender == contractOwner, \"Caller is not contract owner\");\n        _;\n    }\n\n    /********************************************************************************************/\n    /*                                       UTILITY FUNCTIONS                                  */\n    /********************************************************************************************/\n\n    /**\n    * @dev Get operating status of contract\n    *\n    * @return A bool that is the current operating status\n    */\n    function isOperational()\n                            public\n                            view\n                            returns(bool)\n    {\n        return operational;\n    }\n\n\n    /**\n    * @dev Sets contract operations on/off\n    *\n    * When operational mode is disabled, all write transactions except for this one will fail\n    */\n    function setOperatingStatus\n                            (\n                                bool mode\n                            )\n                            external\n                            requireContractOwner\n    {\n        operational = mode;\n    }\n\n    /********************************************************************************************/\n    /*                                     SMART CONTRACT FUNCTIONS                             */\n    /********************************************************************************************/\n\n   /**\n    * @dev Add an airline to the registration queue\n    *      Can only be called from FlightSuretyApp contract\n    *\n    */\n    function registerAirline\n                            (\n                                address newAirline\n                            )\n                            external\n                            requireIsOperational\n                            returns (bool)\n    {\n        // Verify airline has not already been registered.\n        require(!airlines[newAirline].isRegistered, \"Error: Airline has already been registered.\");\n        // Add new airline.\n        airlines[newAirline] = Airline({\n            isRegistered: true,\n            isFunded: false\n        });\n        // Update Airline count.\n        airlineCount += 1;\n\n        return airlines[newAirline].isRegistered;\n    }\n\n    /**\n    * @dev Airline offers funding and can participate in contract functionality\n    *      Can only be called from FlightSuretyApp contract\n    *\n    */\n    function fundAirline\n                            (\n                                address airline\n                            )\n                            external\n                            requireIsOperational\n    {\n        // Set isFunded boolean to true.\n        airlines[airline].isFunded = true;\n    }\n\n\n    /**\n    * @dev Returns isRegistered boolean\n    *\n    */\n    function isAirlineRegistered(address airline) public view returns(bool) {\n        return airlines[airline].isRegistered;\n    }\n\n    /**\n    * @dev Returns isFunded boolean\n    *\n    */\n    function isAirlineFunded(address airline) public view returns(bool) {\n        return airlines[airline].isFunded;\n    }\n\n    /**\n    * @dev Returns integer value of airlineCount\n    *\n    */\n    function getAirlineCount() public view returns(uint256) {\n        return airlineCount;\n    }\n\n    /**\n    * @dev Register flight\n    *\n    */\n    function registerFlight\n                            (\n                                address airline,\n                                string flight,\n                                uint256 timestamp\n                            )\n                            external\n                            requireIsOperational\n    {\n        bytes32 flightKey = getFlightKey(airline, flight, timestamp);\n        // Verify flight has not already been registered.\n        require(!flights[flightKey].isRegistered, \"Flight has already been registered.\");\n        // Register flight.\n        flights[flightKey] = Flight({\n            isRegistered: true,\n            statusCode: 0,\n            updatedTimestamp: timestamp,\n            airline: airline\n        });\n    }\n\n    /**\n    * @dev Returns boolean isRegistered for a flight\n    *\n    */\n    function isFlightRegistered(address airline, string flight, uint256 timestamp) public view returns(bool) {\n        bytes32 flightKey = getFlightKey(airline, flight, timestamp);\n        return flights[flightKey].isRegistered;\n    }\n\n\n   /**\n    * @dev Buy insurance for a flight\n    *\n    */\n    function buy\n                            (\n                                address airline,\n                                string flight,\n                                uint256 timestamp\n                            )\n                            external\n                            payable\n                            requireIsOperational\n    {\n        bytes32 flightKey = getFlightKey(airline, flight, timestamp);\n        passengerInsurances[flightKey] = FlightInsurance({\n            insuree: msg.sender,\n            amount: msg.value,\n            purchased: true,\n            creditied: false\n        });\n    }\n\n    function isInsurancePurchased(address airline, string flight, uint256 timestamp) public view returns(bool) {\n        bytes32 flightKey = getFlightKey(airline, flight, timestamp);\n        return passengerInsurances[flightKey].purchased;\n    }\n\n    /**\n     *  @dev Credits payouts to insurees\n    */\n    function creditInsurees\n                                (\n                                )\n                                external\n                                pure\n    {\n    }\n    \n\n    /**\n     *  @dev Transfers eligible payout funds to insuree\n     *\n    */\n    function pay\n                            (\n                            )\n                            external\n                            pure\n    {\n    }\n\n   /**\n    * @dev Initial funding for the insurance. Unless there are too many delayed flights\n    *      resulting in insurance payouts, the contract should be self-sustaining\n    *\n    */   \n    function fund\n                            (   \n                            )\n                            public\n                            payable\n    {\n    }\n\n    function getFlightKey\n                        (\n                            address airline,\n                            string memory flight,\n                            uint256 timestamp\n                        )\n                        pure\n                        internal\n                        returns(bytes32) \n    {\n        return keccak256(abi.encodePacked(airline, flight, timestamp));\n    }\n\n    /**\n    * @dev Fallback function for funding smart contract.\n    *\n    */\n    function() \n                            external \n                            payable \n    {\n        fund();\n    }\n\n\n}\n",
  "sourcePath": "/Users/bradbehrens/Desktop/FlightSurety-DApp/contracts/FlightSuretyData.sol",
  "compiler": {
    "name": "solc",
    "version": "0.4.26+commit.4563c3fc.Emscripten.clang"
  },
  "schemaVersion": "3.0.19",
  "updatedAt": "2020-05-12T07:16:28.223Z",
  "networkType": "ethereum",
  "devdoc": {
    "methods": {
      "buy(address,string,uint256)": {
        "details": "Buy insurance for a flight    "
      },
      "creditInsurees()": {
        "details": "Credits payouts to insurees"
      },
      "fund()": {
        "details": "Initial funding for the insurance. Unless there are too many delayed flights     resulting in insurance payouts, the contract should be self-sustaining    "
      },
      "fundAirline(address)": {
        "details": "Airline offers funding and can participate in contract functionality     Can only be called from FlightSuretyApp contract    "
      },
      "getAirlineCount()": {
        "details": "Returns integer value of airlineCount    "
      },
      "isAirlineFunded(address)": {
        "details": "Returns isFunded boolean    "
      },
      "isAirlineRegistered(address)": {
        "details": "Returns isRegistered boolean    "
      },
      "isFlightRegistered(address,string,uint256)": {
        "details": "Returns boolean isRegistered for a flight    "
      },
      "isOperational()": {
        "details": "Get operating status of contract",
        "return": "A bool that is the current operating status"
      },
      "pay()": {
        "details": "Transfers eligible payout funds to insuree    "
      },
      "registerAirline(address)": {
        "details": "Add an airline to the registration queue     Can only be called from FlightSuretyApp contract    "
      },
      "registerFlight(address,string,uint256)": {
        "details": "Register flight    "
      },
      "setOperatingStatus(bool)": {
        "details": "Sets contract operations on/off    * When operational mode is disabled, all write transactions except for this one will fail"
      }
    }
  },
  "userdoc": {
    "methods": {}
  }
}