{
  "contractName": "FlightSuretyApp",
  "abi": [
    {
      "constant": true,
      "inputs": [],
      "name": "REGISTRATION_FEE",
      "outputs": [
        {
          "name": "",
          "type": "uint256"
        }
      ],
      "payable": false,
      "stateMutability": "view",
      "type": "function"
    },
    {
      "constant": true,
      "inputs": [],
      "name": "airlinesRegisteredCount",
      "outputs": [
        {
          "name": "",
          "type": "uint256"
        }
      ],
      "payable": false,
      "stateMutability": "view",
      "type": "function"
    },
    {
      "constant": true,
      "inputs": [],
      "name": "AIRLINE_FUND",
      "outputs": [
        {
          "name": "",
          "type": "uint256"
        }
      ],
      "payable": false,
      "stateMutability": "view",
      "type": "function"
    },
    {
      "inputs": [
        {
          "name": "dataContract",
          "type": "address"
        }
      ],
      "payable": false,
      "stateMutability": "nonpayable",
      "type": "constructor"
    },
    {
      "anonymous": false,
      "inputs": [
        {
          "indexed": true,
          "name": "airline",
          "type": "address"
        }
      ],
      "name": "AirlineRegistered",
      "type": "event"
    },
    {
      "anonymous": false,
      "inputs": [
        {
          "indexed": true,
          "name": "airline",
          "type": "address"
        }
      ],
      "name": "AirlineFunded",
      "type": "event"
    },
    {
      "anonymous": false,
      "inputs": [
        {
          "indexed": true,
          "name": "flightKey",
          "type": "bytes32"
        }
      ],
      "name": "FlightRegistered",
      "type": "event"
    },
    {
      "anonymous": false,
      "inputs": [
        {
          "indexed": true,
          "name": "passenger",
          "type": "address"
        },
        {
          "indexed": false,
          "name": "flightKey",
          "type": "bytes32"
        }
      ],
      "name": "InsurancePurchased",
      "type": "event"
    },
    {
      "anonymous": false,
      "inputs": [
        {
          "indexed": false,
          "name": "airline",
          "type": "address"
        },
        {
          "indexed": false,
          "name": "flight",
          "type": "string"
        },
        {
          "indexed": false,
          "name": "timestamp",
          "type": "uint256"
        },
        {
          "indexed": false,
          "name": "status",
          "type": "uint8"
        }
      ],
      "name": "FlightStatusInfo",
      "type": "event"
    },
    {
      "anonymous": false,
      "inputs": [
        {
          "indexed": false,
          "name": "airline",
          "type": "address"
        },
        {
          "indexed": false,
          "name": "flight",
          "type": "string"
        },
        {
          "indexed": false,
          "name": "timestamp",
          "type": "uint256"
        },
        {
          "indexed": false,
          "name": "status",
          "type": "uint8"
        }
      ],
      "name": "OracleReport",
      "type": "event"
    },
    {
      "anonymous": false,
      "inputs": [
        {
          "indexed": false,
          "name": "index",
          "type": "uint8"
        },
        {
          "indexed": false,
          "name": "airline",
          "type": "address"
        },
        {
          "indexed": false,
          "name": "flight",
          "type": "string"
        },
        {
          "indexed": false,
          "name": "timestamp",
          "type": "uint256"
        }
      ],
      "name": "OracleRequest",
      "type": "event"
    },
    {
      "constant": true,
      "inputs": [],
      "name": "isOperational",
      "outputs": [
        {
          "name": "",
          "type": "bool"
        }
      ],
      "payable": false,
      "stateMutability": "pure",
      "type": "function"
    },
    {
      "constant": false,
      "inputs": [
        {
          "name": "airlineAddress",
          "type": "address"
        }
      ],
      "name": "registerAirline",
      "outputs": [],
      "payable": false,
      "stateMutability": "nonpayable",
      "type": "function"
    },
    {
      "constant": false,
      "inputs": [
        {
          "name": "airlineAddress",
          "type": "address"
        }
      ],
      "name": "fundAirline",
      "outputs": [],
      "payable": true,
      "stateMutability": "payable",
      "type": "function"
    },
    {
      "constant": false,
      "inputs": [
        {
          "name": "airlineAddress",
          "type": "address"
        },
        {
          "name": "flightNumber",
          "type": "string"
        },
        {
          "name": "timestamp",
          "type": "uint256"
        }
      ],
      "name": "registerFlight",
      "outputs": [],
      "payable": false,
      "stateMutability": "nonpayable",
      "type": "function"
    },
    {
      "constant": true,
      "inputs": [
        {
          "name": "flightKey",
          "type": "bytes32"
        }
      ],
      "name": "isFlightRegistered",
      "outputs": [
        {
          "name": "",
          "type": "bool"
        }
      ],
      "payable": false,
      "stateMutability": "view",
      "type": "function"
    },
    {
      "constant": false,
      "inputs": [
        {
          "name": "flightKey",
          "type": "bytes32"
        }
      ],
      "name": "purchaseFlightInsurance",
      "outputs": [],
      "payable": true,
      "stateMutability": "payable",
      "type": "function"
    },
    {
      "constant": false,
      "inputs": [],
      "name": "withdraw",
      "outputs": [],
      "payable": false,
      "stateMutability": "nonpayable",
      "type": "function"
    },
    {
      "constant": false,
      "inputs": [
        {
          "name": "airline",
          "type": "address"
        },
        {
          "name": "flight",
          "type": "string"
        },
        {
          "name": "timestamp",
          "type": "uint256"
        }
      ],
      "name": "fetchFlightStatus",
      "outputs": [],
      "payable": false,
      "stateMutability": "nonpayable",
      "type": "function"
    },
    {
      "constant": false,
      "inputs": [],
      "name": "registerOracle",
      "outputs": [],
      "payable": true,
      "stateMutability": "payable",
      "type": "function"
    },
    {
      "constant": true,
      "inputs": [],
      "name": "getMyIndexes",
      "outputs": [
        {
          "name": "",
          "type": "uint8[3]"
        }
      ],
      "payable": false,
      "stateMutability": "view",
      "type": "function"
    },
    {
      "constant": false,
      "inputs": [
        {
          "name": "index",
          "type": "uint8"
        },
        {
          "name": "airline",
          "type": "address"
        },
        {
          "name": "flight",
          "type": "string"
        },
        {
          "name": "timestamp",
          "type": "uint256"
        },
        {
          "name": "statusCode",
          "type": "uint8"
        }
      ],
      "name": "submitOracleResponse",
      "outputs": [],
      "payable": false,
      "stateMutability": "nonpayable",
      "type": "function"
    }
  ],
  "bytecode": "0x60806040526000600560006101000a81548160ff021916908360ff16021790555034801561002c57600080fd5b5060405160208061313483398101806040528101908080519060200190929190505050336000806101000a81548173ffffffffffffffffffffffffffffffffffffffff021916908373ffffffffffffffffffffffffffffffffffffffff16021790555080600160006101000a81548173ffffffffffffffffffffffffffffffffffffffff021916908373ffffffffffffffffffffffffffffffffffffffff16021790555060016003819055505061304c806100e86000396000f3006080604052600436106100d0576000357c0100000000000000000000000000000000000000000000000000000000900463ffffffff1680630e67b672146100d5578063339d2590146100f95780633cc0be9c146101035780633ccfd60b1461019657806358ac36a3146101ad5780635f1cc0e6146101f657806364b4f751146102495780636fbb87981461027457806371cb3971146102aa578063b14c27fa146102d5578063bdfd987714610300578063c10f270014610343578063cd905dff146103c2578063f83f11c0146103f1575b600080fd5b6100f76004803603810190808035600019169060200190929190505050610456565b005b6101016107cd565b005b34801561010f57600080fd5b50610194600480360381019080803573ffffffffffffffffffffffffffffffffffffffff169060200190929190803590602001908201803590602001908080601f0160208091040260200160405190810160405280939291908181526020018383808284378201915050505050509192919290803590602001909291905050506108f5565b005b3480156101a257600080fd5b506101ab610c03565b005b3480156101b957600080fd5b506101dc6004803603810190808035600019169060200190929190505050610d76565b604051808215151515815260200191505060405180910390f35b34801561020257600080fd5b5061020b610dab565b6040518082600360200280838360005b8381101561023657808201518184015260208101905061021b565b5050505090500191505060405180910390f35b34801561025557600080fd5b5061025e610f20565b6040518082815260200191505060405180910390f35b6102a8600480360381019080803573ffffffffffffffffffffffffffffffffffffffff169060200190929190505050610f2c565b005b3480156102b657600080fd5b506102bf611384565b6040518082815260200191505060405180910390f35b3480156102e157600080fd5b506102ea61138a565b6040518082815260200191505060405180910390f35b34801561030c57600080fd5b50610341600480360381019080803573ffffffffffffffffffffffffffffffffffffffff169060200190929190505050611396565b005b34801561034f57600080fd5b506103c0600480360381019080803560ff169060200190929190803573ffffffffffffffffffffffffffffffffffffffff16906020019092919080359060200190820180359060200191909192939192939080359060200190929190803560ff169060200190929190505050611da4565b005b3480156103ce57600080fd5b506103d76123bd565b604051808215151515815260200191505060405180910390f35b3480156103fd57600080fd5b50610454600480360381019080803573ffffffffffffffffffffffffffffffffffffffff169060200190929190803590602001908201803590602001919091929391929390803590602001909291905050506123c6565b005b600115156104f2576040517f08c379a00000000000000000000000000000000000000000000000000000000081526004018080602001828103825260258152602001807f436f6e74726163742069732063757272656e746c79206e6f74206f706572617481526020017f696f6e616c00000000000000000000000000000000000000000000000000000081525060400191505060405180910390fd5b60003411801561050a5750670de0b6b3a76400003411155b15156105a4576040517f08c379a00000000000000000000000000000000000000000000000000000000081526004018080602001828103825260258152602001807f4572726f723a20496e737572616e63652063616e6e6f7420657863656564203181526020017f204554482e00000000000000000000000000000000000000000000000000000081525060400191505060405180910390fd5b600160009054906101000a900473ffffffffffffffffffffffffffffffffffffffff1673ffffffffffffffffffffffffffffffffffffffff16639058e22833836040518363ffffffff167c0100000000000000000000000000000000000000000000000000000000028152600401808373ffffffffffffffffffffffffffffffffffffffff1673ffffffffffffffffffffffffffffffffffffffff168152602001826000191660001916815260200192505050600060405180830381600087803b15801561067157600080fd5b505af1158015610685573d6000803e3d6000fd5b505050506004600082600019166000191681526020019081526020016000206005013390806001815401808255809150509060018203906000526020600020016000909192909190916101000a81548173ffffffffffffffffffffffffffffffffffffffff021916908373ffffffffffffffffffffffffffffffffffffffff16021790555050600160009054906101000a900473ffffffffffffffffffffffffffffffffffffffff1673ffffffffffffffffffffffffffffffffffffffff166108fc349081150290604051600060405180830381858888f19350505050158015610773573d6000803e3d6000fd5b503373ffffffffffffffffffffffffffffffffffffffff167f560e0ec59b8302a4db7417f20b3b117c19e01defaec71a75c29bddbcbe503e228260405180826000191660001916815260200191505060405180910390a250565b6107d5612d37565b670de0b6b3a76400003410151515610855576040517f08c379a000000000000000000000000000000000000000000000000000000000815260040180806020018281038252601c8152602001807f526567697374726174696f6e206665652069732072657175697265640000000081525060200191505060405180910390fd5b61085e33612630565b9050604080519081016040528060011515815260200182815250600660003373ffffffffffffffffffffffffffffffffffffffff1673ffffffffffffffffffffffffffffffffffffffff16815260200190815260200160002060008201518160000160006101000a81548160ff0219169083151502179055506020820151816001019060036108ee929190612d5a565b5090505050565b600060011515610993576040517f08c379a00000000000000000000000000000000000000000000000000000000081526004018080602001828103825260258152602001807f436f6e74726163742069732063757272656e746c79206e6f74206f706572617481526020017f696f6e616c00000000000000000000000000000000000000000000000000000081525060400191505060405180910390fd5b61099e8484846127d6565b905060046000826000191660001916815260200190815260200160002060020160009054906101000a900460ff16151515610a67576040517f08c379a000000000000000000000000000000000000000000000000000000000815260040180806020018281038252602a8152602001807f4572726f723a20466c696768742068617320616c7265616479206265656e207281526020017f6567697374657265642e0000000000000000000000000000000000000000000081525060400191505060405180910390fd5b60c0604051908101604052808573ffffffffffffffffffffffffffffffffffffffff168152602001848152602001600115158152602001838152602001600060ff1681526020016000604051908082528060200260200182016040528015610ade5781602001602082028038833980820191505090505b5081525060046000836000191660001916815260200190815260200160002060008201518160000160006101000a81548173ffffffffffffffffffffffffffffffffffffffff021916908373ffffffffffffffffffffffffffffffffffffffff1602179055506020820151816001019080519060200190610b60929190612df4565b5060408201518160020160006101000a81548160ff0219169083151502179055506060820151816003015560808201518160040160006101000a81548160ff021916908360ff16021790555060a0820151816005019080519060200190610bc8929190612e74565b5090505080600019167fbc2e2465316fe44b06c0fb6f524b2edb5f66caa1ba5b1fe1e10ff178e8707e1460405160405180910390a250505050565b60011515610c9f576040517f08c379a00000000000000000000000000000000000000000000000000000000081526004018080602001828103825260258152602001807f436f6e74726163742069732063757272656e746c79206e6f74206f706572617481526020017f696f6e616c00000000000000000000000000000000000000000000000000000081525060400191505060405180910390fd5b600160009054906101000a900473ffffffffffffffffffffffffffffffffffffffff1673ffffffffffffffffffffffffffffffffffffffff16630c11dedd336040518263ffffffff167c0100000000000000000000000000000000000000000000000000000000028152600401808273ffffffffffffffffffffffffffffffffffffffff1673ffffffffffffffffffffffffffffffffffffffff168152602001915050600060405180830381600087803b158015610d5c57600080fd5b505af1158015610d70573d6000803e3d6000fd5b50505050565b600060046000836000191660001916815260200190815260200160002060020160009054906101000a900460ff169050919050565b610db3612d37565b600660003373ffffffffffffffffffffffffffffffffffffffff1673ffffffffffffffffffffffffffffffffffffffff16815260200190815260200160002060000160009054906101000a900460ff161515610e77576040517f08c379a000000000000000000000000000000000000000000000000000000000815260040180806020018281038252601b8152602001807f4e6f74207265676973746572656420617320616e206f7261636c65000000000081525060200191505060405180910390fd5b600660003373ffffffffffffffffffffffffffffffffffffffff1673ffffffffffffffffffffffffffffffffffffffff168152602001908152602001600020600101600380602002604051908101604052809291908260038015610f16576020028201916000905b82829054906101000a900460ff1660ff1681526020019060010190602082600001049283019260010382029150808411610edf5790505b5050505050905090565b670de0b6b3a764000081565b60011515610fc8576040517f08c379a00000000000000000000000000000000000000000000000000000000081526004018080602001828103825260258152602001807f436f6e74726163742069732063757272656e746c79206e6f74206f706572617481526020017f696f6e616c00000000000000000000000000000000000000000000000000000081525060400191505060405180910390fd5b600160009054906101000a900473ffffffffffffffffffffffffffffffffffffffff1673ffffffffffffffffffffffffffffffffffffffff1663010c5c97336040518263ffffffff167c0100000000000000000000000000000000000000000000000000000000028152600401808273ffffffffffffffffffffffffffffffffffffffff1673ffffffffffffffffffffffffffffffffffffffff168152602001915050602060405180830381600087803b15801561108557600080fd5b505af1158015611099573d6000803e3d6000fd5b505050506040513d60208110156110af57600080fd5b8101908080519060200190929190505050151561115a576040517f08c379a00000000000000000000000000000000000000000000000000000000081526004018080602001828103825260218152602001807f4572726f723a204169726c696e65206973206e6f74207265676973746572656481526020017f2e0000000000000000000000000000000000000000000000000000000000000081525060400191505060405180910390fd5b678ac7230489e800003410151515611200576040517f08c379a00000000000000000000000000000000000000000000000000000000081526004018080602001828103825260278152602001807f4572726f723a20496e73756666696369656e742066756e64696e67206279206181526020017f69726c696e652e0000000000000000000000000000000000000000000000000081525060400191505060405180910390fd5b600160009054906101000a900473ffffffffffffffffffffffffffffffffffffffff1673ffffffffffffffffffffffffffffffffffffffff166108fc349081150290604051600060405180830381858888f19350505050158015611268573d6000803e3d6000fd5b50600160009054906101000a900473ffffffffffffffffffffffffffffffffffffffff1673ffffffffffffffffffffffffffffffffffffffff16636fbb8798826040518263ffffffff167c0100000000000000000000000000000000000000000000000000000000028152600401808273ffffffffffffffffffffffffffffffffffffffff1673ffffffffffffffffffffffffffffffffffffffff168152602001915050600060405180830381600087803b15801561132657600080fd5b505af115801561133a573d6000803e3d6000fd5b505050508073ffffffffffffffffffffffffffffffffffffffff167f3c348ba34685212d5d04f432a9e569b642b180df0227a6b0c899050c4acb7af860405160405180910390a250565b60035481565b678ac7230489e8000081565b60008060011515611435576040517f08c379a00000000000000000000000000000000000000000000000000000000081526004018080602001828103825260258152602001807f436f6e74726163742069732063757272656e746c79206e6f74206f706572617481526020017f696f6e616c00000000000000000000000000000000000000000000000000000081525060400191505060405180910390fd5b600160009054906101000a900473ffffffffffffffffffffffffffffffffffffffff1673ffffffffffffffffffffffffffffffffffffffff1663010c5c97336040518263ffffffff167c0100000000000000000000000000000000000000000000000000000000028152600401808273ffffffffffffffffffffffffffffffffffffffff1673ffffffffffffffffffffffffffffffffffffffff168152602001915050602060405180830381600087803b1580156114f257600080fd5b505af1158015611506573d6000803e3d6000fd5b505050506040513d602081101561151c57600080fd5b810190808051906020019092919050505015156115c7576040517f08c379a00000000000000000000000000000000000000000000000000000000081526004018080602001828103825260218152602001807f4572726f723a204169726c696e65206973206e6f74207265676973746572656481526020017f2e0000000000000000000000000000000000000000000000000000000000000081525060400191505060405180910390fd5b600160009054906101000a900473ffffffffffffffffffffffffffffffffffffffff1673ffffffffffffffffffffffffffffffffffffffff1663f53b6d65336040518263ffffffff167c0100000000000000000000000000000000000000000000000000000000028152600401808273ffffffffffffffffffffffffffffffffffffffff1673ffffffffffffffffffffffffffffffffffffffff168152602001915050602060405180830381600087803b15801561168457600080fd5b505af1158015611698573d6000803e3d6000fd5b505050506040513d60208110156116ae57600080fd5b81019080805190602001909291905050501515611733576040517f08c379a000000000000000000000000000000000000000000000000000000000815260040180806020018281038252601d8152602001807f4572726f723a204169726c696e65206973206e6f742066756e6465642e00000081525060200191505060405180910390fd5b600073ffffffffffffffffffffffffffffffffffffffff168373ffffffffffffffffffffffffffffffffffffffff16141515156117fe576040517f08c379a00000000000000000000000000000000000000000000000000000000081526004018080602001828103825260248152602001807f4572726f723a204169726c696e652061646472657373206973206e6f7420766181526020017f6c69642e0000000000000000000000000000000000000000000000000000000081525060400191505060405180910390fd5b6004600354101561191957600160009054906101000a900473ffffffffffffffffffffffffffffffffffffffff1673ffffffffffffffffffffffffffffffffffffffff1663bdfd9877846040518263ffffffff167c0100000000000000000000000000000000000000000000000000000000028152600401808273ffffffffffffffffffffffffffffffffffffffff1673ffffffffffffffffffffffffffffffffffffffff168152602001915050602060405180830381600087803b1580156118c657600080fd5b505af11580156118da573d6000803e3d6000fd5b505050506040513d60208110156118f057600080fd5b810190808051906020019092919050505050600360008154809291906001019190505550611d5c565b60009150600090505b600260008473ffffffffffffffffffffffffffffffffffffffff1673ffffffffffffffffffffffffffffffffffffffff16815260200190815260200160002080549050811015611a2c573373ffffffffffffffffffffffffffffffffffffffff16600260008573ffffffffffffffffffffffffffffffffffffffff1673ffffffffffffffffffffffffffffffffffffffff168152602001908152602001600020828154811015156119cf57fe5b9060005260206000200160009054906101000a900473ffffffffffffffffffffffffffffffffffffffff1673ffffffffffffffffffffffffffffffffffffffff161415611a1f5760019150611a2c565b8080600101915050611922565b81151515611ac8576040517f08c379a00000000000000000000000000000000000000000000000000000000081526004018080602001828103825260258152602001807f4572726f723a204475706c69636174656420766f746573206e696f7420616c6c81526020017f6f7765642e00000000000000000000000000000000000000000000000000000081525060400191505060405180910390fd5b600260008473ffffffffffffffffffffffffffffffffffffffff1673ffffffffffffffffffffffffffffffffffffffff1681526020019081526020016000203390806001815401808255809150509060018203906000526020600020016000909192909190916101000a81548173ffffffffffffffffffffffffffffffffffffffff021916908373ffffffffffffffffffffffffffffffffffffffff16021790555050611b8160026003546128fb90919063ffffffff16565b600260008573ffffffffffffffffffffffffffffffffffffffff1673ffffffffffffffffffffffffffffffffffffffff16815260200190815260200160002080549050101515611cd757600160009054906101000a900473ffffffffffffffffffffffffffffffffffffffff1673ffffffffffffffffffffffffffffffffffffffff1663bdfd9877846040518263ffffffff167c0100000000000000000000000000000000000000000000000000000000028152600401808273ffffffffffffffffffffffffffffffffffffffff1673ffffffffffffffffffffffffffffffffffffffff168152602001915050602060405180830381600087803b158015611c8857600080fd5b505af1158015611c9c573d6000803e3d6000fd5b505050506040513d6020811015611cb257600080fd5b8101908080519060200190929190505050506003600081548092919060010191905055505b6000604051908082528060200260200182016040528015611d075781602001602082028038833980820191505090505b50600260008573ffffffffffffffffffffffffffffffffffffffff1673ffffffffffffffffffffffffffffffffffffffff1681526020019081526020016000209080519060200190611d5a929190612efe565b505b8273ffffffffffffffffffffffffffffffffffffffff167f89a6354fb229eda6cbc28306798727b4d524818d2c375220bc3f360f24cffaca60405160405180910390a2505050565b60008660ff16600660003373ffffffffffffffffffffffffffffffffffffffff1673ffffffffffffffffffffffffffffffffffffffff1681526020019081526020016000206001016000600381101515611dfa57fe5b602091828204019190069054906101000a900460ff1660ff161480611e8957508660ff16600660003373ffffffffffffffffffffffffffffffffffffffff1673ffffffffffffffffffffffffffffffffffffffff1681526020019081526020016000206001016001600381101515611e6e57fe5b602091828204019190069054906101000a900460ff1660ff16145b80611efe57508660ff16600660003373ffffffffffffffffffffffffffffffffffffffff1673ffffffffffffffffffffffffffffffffffffffff1681526020019081526020016000206001016002600381101515611ee357fe5b602091828204019190069054906101000a900460ff1660ff16145b1515611f98576040517f08c379a00000000000000000000000000000000000000000000000000000000081526004018080602001828103825260238152602001807f496e64657820646f6573206e6f74206d61746368206f7261636c65207265717581526020017f657374000000000000000000000000000000000000000000000000000000000081525060400191505060405180910390fd5b8686868686604051602001808660ff1660ff167f01000000000000000000000000000000000000000000000000000000000000000281526001018573ffffffffffffffffffffffffffffffffffffffff1673ffffffffffffffffffffffffffffffffffffffff166c010000000000000000000000000281526014018484808284378201915050828152602001955050505050506040516020818303038152906040526040518082805190602001908083835b60208310151561206f578051825260208201915060208101905060208303925061204a565b6001836020036101000a0380198251168184511680821785525050505050509050019150506040518091039020905060076000826000191660001916815260200190815260200160002060000160149054906101000a900460ff161515612164576040517f08c379a000000000000000000000000000000000000000000000000000000000815260040180806020018281038252602f8152602001807f466c69676874206f722074696d657374616d7020646f206e6f74206d6174636881526020017f206f7261636c652072657175657374000000000000000000000000000000000081525060400191505060405180910390fd5b60076000826000191660001916815260200190815260200160002060010160008360ff1660ff1681526020019081526020016000203390806001815401808255809150509060018203906000526020600020016000909192909190916101000a81548173ffffffffffffffffffffffffffffffffffffffff021916908373ffffffffffffffffffffffffffffffffffffffff160217905550507f43c853095c2752648493c88b4baac4d580d2594ffb00c6f1d4242d844514f7838686868686604051808673ffffffffffffffffffffffffffffffffffffffff1673ffffffffffffffffffffffffffffffffffffffff168152602001806020018481526020018360ff1660ff16815260200182810382528686828181526020019250808284378201915050965050505050505060405180910390a1600360076000836000191660001916815260200190815260200160002060010160008460ff1660ff168152602001908152602001600020805490501015156123b4577fe23f5229de535c091e3b7bec2665f5d698192d3b31393066e8987b7a05076b6c8686868686604051808673ffffffffffffffffffffffffffffffffffffffff1673ffffffffffffffffffffffffffffffffffffffff168152602001806020018481526020018360ff1660ff16815260200182810382528686828181526020019250808284378201915050965050505050505060405180910390a16123b38686868080601f0160208091040260200160405190810160405280939291908181526020018383808284378201915050505050508585612911565b5b50505050505050565b60006001905090565b6000806123d233612bd5565b91508186868686604051602001808660ff1660ff167f01000000000000000000000000000000000000000000000000000000000000000281526001018573ffffffffffffffffffffffffffffffffffffffff1673ffffffffffffffffffffffffffffffffffffffff166c010000000000000000000000000281526014018484808284378201915050828152602001955050505050506040516020818303038152906040526040518082805190602001908083835b6020831015156124ab5780518252602082019150602081019050602083039250612486565b6001836020036101000a0380198251168184511680821785525050505050509050019150506040518091039020905060408051908101604052803373ffffffffffffffffffffffffffffffffffffffff1681526020016001151581525060076000836000191660001916815260200190815260200160002060008201518160000160006101000a81548173ffffffffffffffffffffffffffffffffffffffff021916908373ffffffffffffffffffffffffffffffffffffffff16021790555060208201518160000160146101000a81548160ff0219169083151502179055509050507f3ed01f2c3fc24c6b329d931e35b03e390d23497d22b3f90e15b600343e93df118287878787604051808660ff1660ff1681526020018573ffffffffffffffffffffffffffffffffffffffff1673ffffffffffffffffffffffffffffffffffffffff1681526020018060200183815260200182810382528585828181526020019250808284378201915050965050505050505060405180910390a1505050505050565b612638612d37565b612640612d37565b61264983612bd5565b81600060038110151561265857fe5b602002019060ff16908160ff168152505080600060038110151561267857fe5b602002015181600160038110151561268c57fe5b602002019060ff16908160ff16815250505b8060006003811015156126ad57fe5b602002015160ff168160016003811015156126c457fe5b602002015160ff161415612700576126db83612bd5565b8160016003811015156126ea57fe5b602002019060ff16908160ff168152505061269e565b80600160038110151561270f57fe5b602002015181600260038110151561272357fe5b602002019060ff16908160ff16815250505b80600060038110151561274457fe5b602002015160ff1681600260038110151561275b57fe5b602002015160ff16148061279a575080600160038110151561277957fe5b602002015160ff1681600260038110151561279057fe5b602002015160ff16145b156127cd576127a883612bd5565b8160026003811015156127b757fe5b602002019060ff16908160ff1681525050612735565b80915050919050565b6000838383604051602001808473ffffffffffffffffffffffffffffffffffffffff1673ffffffffffffffffffffffffffffffffffffffff166c0100000000000000000000000002815260140183805190602001908083835b602083101515612854578051825260208201915060208101905060208303925061282f565b6001836020036101000a03801982511681845116808217855250505050505090500182815260200193505050506040516020818303038152906040526040518082805190602001908083835b6020831015156128c557805182526020820191506020810190506020830392506128a0565b6001836020036101000a038019825116818451168082178552505050505050905001915050604051809103902090509392505050565b6000818381151561290857fe5b04905092915050565b6000606060006129228787876127d6565b92506004600084600019166000191681526020019081526020016000206005018054806020026020016040519081016040528092919081815260200182805480156129c257602002820191906000526020600020905b8160009054906101000a900473ffffffffffffffffffffffffffffffffffffffff1673ffffffffffffffffffffffffffffffffffffffff1681526020019060010190808311612978575b5050505050915060008251111515612a68576040517f08c379a00000000000000000000000000000000000000000000000000000000081526004018080602001828103825260398152602001807f4572726f723a204e6f2070617373656e6765727320707572636861736564206981526020017f6e737572616e636520666f72207468697320666c696768742e0000000000000081525060400191505060405180910390fd5b8360046000856000191660001916815260200190815260200160002060040160006101000a81548160ff021916908360ff160217905550601460ff168460ff161415612bcc57600090505b81518160ff161015612bcb57600160009054906101000a900473ffffffffffffffffffffffffffffffffffffffff1673ffffffffffffffffffffffffffffffffffffffff16631a861865838360ff16815181101515612b0e57fe5b90602001906020020151856040518363ffffffff167c0100000000000000000000000000000000000000000000000000000000028152600401808373ffffffffffffffffffffffffffffffffffffffff1673ffffffffffffffffffffffffffffffffffffffff168152602001826000191660001916815260200192505050600060405180830381600087803b158015612ba657600080fd5b505af1158015612bba573d6000803e3d6000fd5b505050508080600101915050612ab3565b5b50505050505050565b6000806000600a91508160ff166005600081819054906101000a900460ff168092919060010191906101000a81548160ff021916908360ff16021790555060ff16430340856040516020018083600019166000191681526020018273ffffffffffffffffffffffffffffffffffffffff1673ffffffffffffffffffffffffffffffffffffffff166c01000000000000000000000000028152601401925050506040516020818303038152906040526040518082805190602001908083835b602083101515612cb85780518252602082019150602081019050602083039250612c93565b6001836020036101000a038019825116818451168082178552505050505050905001915050604051809103902060019004811515612cf257fe5b06905060fa600560009054906101000a900460ff1660ff161115612d2d576000600560006101000a81548160ff021916908360ff1602179055505b8092505050919050565b606060405190810160405280600390602082028038833980820191505090505090565b826003601f01602090048101928215612de35791602002820160005b83821115612db457835183826101000a81548160ff021916908360ff1602179055509260200192600101602081600001049283019260010302612d76565b8015612de15782816101000a81549060ff0219169055600101602081600001049283019260010302612db4565b505b509050612df09190612f88565b5090565b828054600181600116156101000203166002900490600052602060002090601f016020900481019282601f10612e3557805160ff1916838001178555612e63565b82800160010185558215612e63579182015b82811115612e62578251825591602001919060010190612e47565b5b509050612e709190612fb8565b5090565b828054828255906000526020600020908101928215612eed579160200282015b82811115612eec5782518260006101000a81548173ffffffffffffffffffffffffffffffffffffffff021916908373ffffffffffffffffffffffffffffffffffffffff16021790555091602001919060010190612e94565b5b509050612efa9190612fdd565b5090565b828054828255906000526020600020908101928215612f77579160200282015b82811115612f765782518260006101000a81548173ffffffffffffffffffffffffffffffffffffffff021916908373ffffffffffffffffffffffffffffffffffffffff16021790555091602001919060010190612f1e565b5b509050612f849190612fdd565b5090565b612fb591905b80821115612fb157600081816101000a81549060ff021916905550600101612f8e565b5090565b90565b612fda91905b80821115612fd6576000816000905550600101612fbe565b5090565b90565b61301d91905b8082111561301957600081816101000a81549073ffffffffffffffffffffffffffffffffffffffff021916905550600101612fe3565b5090565b905600a165627a7a72305820a62bd2ae08c73bf511e4c1a6aeb71fe682d587a4d3e4f2e8f3fce44a0860941b0029",
  "source": "pragma solidity ^0.4.25;\n\n// It's important to avoid vulnerabilities due to numeric overflow bugs\n// OpenZeppelin's SafeMath library, when used correctly, protects agains such bugs\n// More info: https://www.nccgroup.trust/us/about-us/newsroom-and-events/blog/2018/november/smart-contract-insecurity-bad-arithmetic/\n\nimport \"../node_modules/openzeppelin-solidity/contracts/math/SafeMath.sol\";\nimport \"./FlightSuretyData.sol\";\n\n/************************************************** */\n/* FlightSurety Smart Contract                      */\n/************************************************** */\ncontract FlightSuretyApp {\n    using SafeMath for uint256; // Allow SafeMath functions to be called for all uint256 types (similar to \"prototype\" in Javascript)\n\n    /********************************************************************************************/\n    /*                                       DATA VARIABLES                                     */\n    /********************************************************************************************/\n\n    // Flight status codees\n    uint8 private constant STATUS_CODE_UNKNOWN = 0;\n    uint8 private constant STATUS_CODE_ON_TIME = 10;\n    uint8 private constant STATUS_CODE_LATE_AIRLINE = 20;\n    uint8 private constant STATUS_CODE_LATE_WEATHER = 30;\n    uint8 private constant STATUS_CODE_LATE_TECHNICAL = 40;\n    uint8 private constant STATUS_CODE_LATE_OTHER = 50;\n\n    // Business logic constants.\n    uint256 private constant MULTIPARTY_CONSENSUS_LIMIT = 4;\n    uint256 private constant INSURANCE_MAX_PAYMENT = 1 ether;\n    uint256 public constant AIRLINE_FUND = 10 ether;\n\n    address private contractOwner;          // Account used to deploy contract\n\n    // Data contract.\n    FlightSuretyData flightSuretyData;\n\n    // Voting address array for multiparty consensus.\n    mapping(address => address[]) private airlineVotes;\n\n    // Number of registered airlines.\n    uint256 public airlinesRegisteredCount;\n\n    struct Flight {\n        address airline;\n        string flight;\n        bool isRegistered;\n        uint256 updatedTimestamp;\n        uint8 statusCode;\n        address[] insuredPassengers;\n    }\n\n    mapping(bytes32 => Flight) private flights;\n\n \n    /********************************************************************************************/\n    /*                                       FUNCTION MODIFIERS                                 */\n    /********************************************************************************************/\n\n    // Modifiers help avoid duplication of code. They are typically used to validate something\n    // before a function is allowed to be executed.\n\n    /**\n    * @dev Modifier that requires the \"operational\" boolean variable to be \"true\"\n    *      This is used on all state changing functions to pause the contract in\n    *      the event there is an issue that needs to be fixed\n    */\n    modifier requireIsOperational() \n    {\n         // Modify to call data contract's status\n        require(true, \"Contract is currently not operational\");  \n        _;  // All modifiers require an \"_\" which indicates where the function body will be added\n    }\n\n    /**\n    * @dev Modifier that requires the \"ContractOwner\" account to be the function caller\n    */\n    modifier requireContractOwner()\n    {\n        require(msg.sender == contractOwner, \"Caller is not contract owner\");\n        _;\n    }\n\n    // AIRLINE MODIFIERS\n\n    /**\n    * @dev Modifier that requires the Airline to have been registered.\n    */\n    modifier requireIsAirlineRegistered()\n    {\n        require(flightSuretyData.isAirlineRegistered(msg.sender), \"Error: Airline is not registered.\");\n        _;\n    }\n\n    /**\n    * @dev Modifier that requires the Airline to have offered funding.\n    */\n    modifier requireIsAirlineFunded()\n    {\n        require(flightSuretyData.isAirlineFunded(msg.sender), \"Error: Airline is not funded.\");\n        _;\n    }\n\n    // FLIGHT MODIFIERS\n\n\n    /********************************************************************************************/\n    /*                                       CONSTRUCTOR                                        */\n    /********************************************************************************************/\n\n    /**\n    * @dev Contract constructor\n    *\n    */\n    constructor\n                                (\n                                    address dataContract\n                                )\n                                public\n    {\n        contractOwner = msg.sender;\n        // Initalise data contract.\n        flightSuretyData = FlightSuretyData(dataContract);\n        // Initalise number of registered airlines.\n        airlinesRegisteredCount = 1;\n    }\n\n     /********************************************************************************************/\n    /*                                       EVENT DEFINITIONS                                  */\n    /********************************************************************************************/\n\n    event AirlineRegistered(address indexed airline);\n    event AirlineFunded(address indexed airline);\n    event FlightRegistered(bytes32 indexed flightKey);\n    event InsurancePurchased(address indexed passenger, bytes32 flightKey);\n\n    /********************************************************************************************/\n    /*                                       UTILITY FUNCTIONS                                  */\n    /********************************************************************************************/\n\n    function isOperational()\n                            public\n                            pure\n                            returns(bool)\n    {\n        return true;  // Modify to call data contract's status\n    }\n\n    /********************************************************************************************/\n    /*                                     SMART CONTRACT FUNCTIONS                             */\n    /********************************************************************************************/\n\n  \n   /**\n    * @dev Add an airline to the registration queue\n    *\n    */\n    function registerAirline\n                            (\n                                address airlineAddress\n                            )\n                            public\n                            requireIsOperational\n                            requireIsAirlineRegistered\n                            requireIsAirlineFunded\n    {\n        // Verify airline address is valid.\n        require(airlineAddress != address(0), \"Error: Airline address is not valid.\");\n\n        // Register Airline via existing airline or MPC.\n        if (airlinesRegisteredCount < MULTIPARTY_CONSENSUS_LIMIT) {\n            // Existing funded airline can register new airline.\n            flightSuretyData.registerAirline(airlineAddress);\n            airlinesRegisteredCount++;\n        }\n        else {\n            // Add airline via multiparty consensus mechanism.\n            bool isDuplicate = false;\n            for(uint i=0; i < airlineVotes[airlineAddress].length; i++) {\n                if (airlineVotes[airlineAddress][i] == msg.sender) {\n                    isDuplicate = true;\n                    break;\n                }\n            }\n            // Verify airline has not voted twice.\n            require(!isDuplicate, \"Error: Duplicated votes niot allowed.\");\n            // Add airline vote.\n            airlineVotes[airlineAddress].push(msg.sender);\n            // Verify >50% of airline has voted to register new airline.\n            if (airlineVotes[airlineAddress].length >= airlinesRegisteredCount.div(2)) {\n                // Add new airline.\n                flightSuretyData.registerAirline(airlineAddress);\n                airlinesRegisteredCount++;\n            }\n            // Reset airlineVotes for next registration multipart vote.\n            airlineVotes[airlineAddress] = new address[](0);\n        }\n        // Emit event.\n        emit AirlineRegistered(airlineAddress);\n    }\n\n    /**\n    * @dev Airline has offered funding and can participate in contract functioality.\n    *\n    */\n    function fundAirline\n                                (\n                                    address airlineAddress\n                                )\n                                public\n                                payable\n                                requireIsOperational\n                                requireIsAirlineRegistered\n    {\n        // Verify funding is greater than minimum funding requirement.\n        require(msg.value >= AIRLINE_FUND, \"Error: Insufficient funding by airline.\");\n        // Transfer funds to data contract.\n        address(flightSuretyData).transfer(msg.value);\n        // Authorise airline being funded.\n        flightSuretyData.fundAirline(airlineAddress);\n        // Emit event.\n        emit AirlineFunded(airlineAddress);\n    }\n\n\n   /**\n    * @dev Register a future flight for insuring.\n    *\n    */  \n    function registerFlight\n                                (\n                                    address airlineAddress,\n                                    string flightNumber,\n                                    uint256 timestamp\n                                )\n                                public\n                                requireIsOperational\n    {\n        // Calculate flight key.\n        bytes32 flightKey = getFlightKey(airlineAddress, flightNumber, timestamp);\n        // Verify flight has not already been added.\n        require(!flights[flightKey].isRegistered, \"Error: Flight has already been registered.\");\n        // Create new flight.\n        flights[flightKey] = Flight({\n            airline: airlineAddress,\n            flight: flightNumber,\n            isRegistered: true,\n            updatedTimestamp: timestamp,\n            statusCode: STATUS_CODE_UNKNOWN,\n            insuredPassengers: new address[](0)\n        });\n        // Emit event.\n        emit FlightRegistered(flightKey);\n    }\n\n    // Returns boolean value if a flight has been successfuly registered.\n    function isFlightRegistered(bytes32 flightKey) public view returns (bool) {\n        return flights[flightKey].isRegistered;\n    } \n\n    /**\n    * @dev Purchase flight insurance.\n    *\n    */  \n    function purchaseFlightInsurance\n                                (\n                                    bytes32 flightKey\n                                )\n                                public\n                                payable\n                                requireIsOperational\n    {\n        // Verify payment doesn't exceed insurance limit.\n        require(msg.value > 0 && msg.value <= INSURANCE_MAX_PAYMENT, \"Error: Insurance cannot exceed 1 ETH.\");\n        // Purchase flight insurance.\n        flightSuretyData.buy(msg.sender, flightKey);\n        // Push passenger on to flight.\n        flights[flightKey].insuredPassengers.push(msg.sender);\n        // Send funds to data contract.\n        flightSuretyData.transfer(msg.value);\n        // Emit event.\n        emit InsurancePurchased(msg.sender, flightKey);\n    }\n    \n   /**\n    * @dev Called after oracle has updated flight status\n    *\n    */  \n    function processFlightStatus\n                                (\n                                    address airline,\n                                    string memory flight,\n                                    uint256 timestamp,\n                                    uint8 statusCode\n                                )\n                                internal\n    {\n        // Obtain flight key.\n        bytes32 flightKey = getFlightKey(airline, flight, timestamp);\n        // Obtain insured passengers array for flight.\n        address[] memory passengers = flights[flightKey].insuredPassengers;\n        // Verify passengers have bought insurance.\n        require(passengers.length > 0, \"Error: No passengers purchased insurance for this flight.\");\n        // Obtain flight status code.\n        flights[flightKey].statusCode = statusCode;\n        // Verify flight is late.\n        if(statusCode == STATUS_CODE_LATE_AIRLINE) {\n            // Loop through insured passengers.\n            for(uint8 i = 0; i < passengers.length; i++) {\n                // Credit insured passengers with compensation.\n                flightSuretyData.creditInsurees(passengers[i], flightKey);\n            }\n        }\n    }\n\n    // Passengers can withdraw their funds.\n    function withdraw\n                            (\n                            )\n                            public\n                            requireIsOperational\n    {\n        // Call data contract method.\n        flightSuretyData.pay(msg.sender);\n    }\n\n\n    // Generate a request for oracles to fetch flight information\n    function fetchFlightStatus\n                        (\n                            address airline,\n                            string flight,\n                            uint256 timestamp\n                        )\n                        external\n    {\n        uint8 index = getRandomIndex(msg.sender);\n\n        // Generate a unique key for storing the request\n        bytes32 key = keccak256(abi.encodePacked(index, airline, flight, timestamp));\n        oracleResponses[key] = ResponseInfo({\n                                                requester: msg.sender,\n                                                isOpen: true\n                                            });\n\n        emit OracleRequest(index, airline, flight, timestamp);\n    } \n\n\n// region ORACLE MANAGEMENT\n\n    // Incremented to add pseudo-randomness at various points\n    uint8 private nonce = 0;    \n\n    // Fee to be paid when registering oracle\n    uint256 public constant REGISTRATION_FEE = 1 ether;\n\n    // Number of oracles that must respond for valid status\n    uint256 private constant MIN_RESPONSES = 3;\n\n\n    struct Oracle {\n        bool isRegistered;\n        uint8[3] indexes;        \n    }\n\n    // Track all registered oracles\n    mapping(address => Oracle) private oracles;\n\n    // Model for responses from oracles\n    struct ResponseInfo {\n        address requester;                              // Account that requested status\n        bool isOpen;                                    // If open, oracle responses are accepted\n        mapping(uint8 => address[]) responses;          // Mapping key is the status code reported\n                                                        // This lets us group responses and identify\n                                                        // the response that majority of the oracles\n    }\n\n    // Track all oracle responses\n    // Key = hash(index, flight, timestamp)\n    mapping(bytes32 => ResponseInfo) private oracleResponses;\n\n    // Event fired each time an oracle submits a response\n    event FlightStatusInfo(address airline, string flight, uint256 timestamp, uint8 status);\n\n    event OracleReport(address airline, string flight, uint256 timestamp, uint8 status);\n\n    // Event fired when flight status request is submitted\n    // Oracles track this and if they have a matching index\n    // they fetch data and submit a response\n    event OracleRequest(uint8 index, address airline, string flight, uint256 timestamp);\n\n\n    // Register an oracle with the contract\n    function registerOracle\n                            (\n                            )\n                            external\n                            payable\n    {\n        // Require registration fee\n        require(msg.value >= REGISTRATION_FEE, \"Registration fee is required\");\n\n        uint8[3] memory indexes = generateIndexes(msg.sender);\n\n        oracles[msg.sender] = Oracle({\n                                        isRegistered: true,\n                                        indexes: indexes\n                                    });\n    }\n\n    function getMyIndexes\n                            (\n                            )\n                            view\n                            external\n                            returns(uint8[3])\n    {\n        require(oracles[msg.sender].isRegistered, \"Not registered as an oracle\");\n\n        return oracles[msg.sender].indexes;\n    }\n\n\n\n\n    // Called by oracle when a response is available to an outstanding request\n    // For the response to be accepted, there must be a pending request that is open\n    // and matches one of the three Indexes randomly assigned to the oracle at the\n    // time of registration (i.e. uninvited oracles are not welcome)\n    function submitOracleResponse\n                        (\n                            uint8 index,\n                            address airline,\n                            string flight,\n                            uint256 timestamp,\n                            uint8 statusCode\n                        )\n                        external\n    {\n        require((oracles[msg.sender].indexes[0] == index) || (oracles[msg.sender].indexes[1] == index) || (oracles[msg.sender].indexes[2] == index), \"Index does not match oracle request\");\n\n\n        bytes32 key = keccak256(abi.encodePacked(index, airline, flight, timestamp)); \n        require(oracleResponses[key].isOpen, \"Flight or timestamp do not match oracle request\");\n\n        oracleResponses[key].responses[statusCode].push(msg.sender);\n\n        // Information isn't considered verified until at least MIN_RESPONSES\n        // oracles respond with the *** same *** information\n        emit OracleReport(airline, flight, timestamp, statusCode);\n        if (oracleResponses[key].responses[statusCode].length >= MIN_RESPONSES) {\n\n            emit FlightStatusInfo(airline, flight, timestamp, statusCode);\n\n            // Handle flight status as appropriate\n            processFlightStatus(airline, flight, timestamp, statusCode);\n        }\n    }\n\n\n    function getFlightKey\n                        (\n                            address airline,\n                            string flight,\n                            uint256 timestamp\n                        )\n                        pure\n                        internal\n                        returns(bytes32) \n    {\n        return keccak256(abi.encodePacked(airline, flight, timestamp));\n    }\n\n    // Returns array of three non-duplicating integers from 0-9\n    function generateIndexes\n                            (                       \n                                address account         \n                            )\n                            internal\n                            returns(uint8[3])\n    {\n        uint8[3] memory indexes;\n        indexes[0] = getRandomIndex(account);\n        \n        indexes[1] = indexes[0];\n        while(indexes[1] == indexes[0]) {\n            indexes[1] = getRandomIndex(account);\n        }\n\n        indexes[2] = indexes[1];\n        while((indexes[2] == indexes[0]) || (indexes[2] == indexes[1])) {\n            indexes[2] = getRandomIndex(account);\n        }\n\n        return indexes;\n    }\n\n    // Returns array of three non-duplicating integers from 0-9\n    function getRandomIndex\n                            (\n                                address account\n                            )\n                            internal\n                            returns (uint8)\n    {\n        uint8 maxValue = 10;\n\n        // Pseudo random number...the incrementing nonce adds variation\n        uint8 random = uint8(uint256(keccak256(abi.encodePacked(blockhash(block.number - nonce++), account))) % maxValue);\n\n        if (nonce > 250) {\n            nonce = 0;  // Can only fetch blockhashes for last 256 blocks so we adapt\n        }\n\n        return random;\n    }\n\n// endregion\n\n}   ",
  "sourcePath": "/Users/bradbehrens/Desktop/FlightSurety-DApp/contracts/FlightSuretyApp.sol",
  "compiler": {
    "name": "solc",
    "version": "0.4.26+commit.4563c3fc.Emscripten.clang"
  },
  "schemaVersion": "3.0.19",
  "updatedAt": "2020-02-08T11:37:30.233Z",
  "networkType": "ethereum",
  "devdoc": {
    "methods": {
      "fundAirline(address)": {
        "details": "Airline has offered funding and can participate in contract functioality.    "
      },
      "purchaseFlightInsurance(bytes32)": {
        "details": "Purchase flight insurance.    "
      },
      "registerAirline(address)": {
        "details": "Add an airline to the registration queue    "
      },
      "registerFlight(address,string,uint256)": {
        "details": "Register a future flight for insuring.    "
      }
    }
  },
  "userdoc": {
    "methods": {
      "isOperational()": {
        "notice": "*****************************************************************************************"
      }
    }
  }
}