{
  "contractName": "FlightSuretyData",
  "abi": [
    {
      "inputs": [
        {
          "name": "firstAirline",
          "type": "address"
        }
      ],
      "payable": false,
      "stateMutability": "nonpayable",
      "type": "constructor"
    },
    {
      "payable": true,
      "stateMutability": "payable",
      "type": "fallback"
    },
    {
      "constant": true,
      "inputs": [],
      "name": "isOperational",
      "outputs": [
        {
          "name": "",
          "type": "bool"
        }
      ],
      "payable": false,
      "stateMutability": "view",
      "type": "function"
    },
    {
      "constant": false,
      "inputs": [
        {
          "name": "mode",
          "type": "bool"
        }
      ],
      "name": "setOperatingStatus",
      "outputs": [],
      "payable": false,
      "stateMutability": "nonpayable",
      "type": "function"
    },
    {
      "constant": false,
      "inputs": [
        {
          "name": "newAirline",
          "type": "address"
        }
      ],
      "name": "registerAirline",
      "outputs": [
        {
          "name": "",
          "type": "bool"
        }
      ],
      "payable": false,
      "stateMutability": "nonpayable",
      "type": "function"
    },
    {
      "constant": false,
      "inputs": [
        {
          "name": "airlineAddress",
          "type": "address"
        }
      ],
      "name": "fundAirline",
      "outputs": [],
      "payable": false,
      "stateMutability": "nonpayable",
      "type": "function"
    },
    {
      "constant": true,
      "inputs": [
        {
          "name": "airlineAddress",
          "type": "address"
        }
      ],
      "name": "isAirlineRegistered",
      "outputs": [
        {
          "name": "",
          "type": "bool"
        }
      ],
      "payable": false,
      "stateMutability": "view",
      "type": "function"
    },
    {
      "constant": true,
      "inputs": [
        {
          "name": "airlineAddress",
          "type": "address"
        }
      ],
      "name": "isAirlineFunded",
      "outputs": [
        {
          "name": "",
          "type": "bool"
        }
      ],
      "payable": false,
      "stateMutability": "view",
      "type": "function"
    },
    {
      "constant": false,
      "inputs": [
        {
          "name": "passenger",
          "type": "address"
        },
        {
          "name": "flightKey",
          "type": "bytes32"
        }
      ],
      "name": "buy",
      "outputs": [],
      "payable": true,
      "stateMutability": "payable",
      "type": "function"
    },
    {
      "constant": false,
      "inputs": [
        {
          "name": "passenger",
          "type": "address"
        },
        {
          "name": "flightKey",
          "type": "bytes32"
        }
      ],
      "name": "creditInsurees",
      "outputs": [],
      "payable": true,
      "stateMutability": "payable",
      "type": "function"
    },
    {
      "constant": false,
      "inputs": [
        {
          "name": "passengerAddress",
          "type": "address"
        }
      ],
      "name": "pay",
      "outputs": [],
      "payable": true,
      "stateMutability": "payable",
      "type": "function"
    },
    {
      "constant": false,
      "inputs": [],
      "name": "fund",
      "outputs": [],
      "payable": true,
      "stateMutability": "payable",
      "type": "function"
    }
  ],
  "bytecode": "0x60806040526001600060146101000a81548160ff02191690831515021790555034801561002b57600080fd5b50604051602080610e7183398101806040528101908080519060200190929190505050336000806101000a81548173ffffffffffffffffffffffffffffffffffffffff021916908373ffffffffffffffffffffffffffffffffffffffff160217905550604080519081016040528060011515815260200160001515815250600260008373ffffffffffffffffffffffffffffffffffffffff1673ffffffffffffffffffffffffffffffffffffffff16815260200190815260200160002060008201518160000160006101000a81548160ff02191690831515021790555060208201518160000160016101000a81548160ff02191690831515021790555090505050610d368061013b6000396000f3006080604052600436106100a4576000357c0100000000000000000000000000000000000000000000000000000000900463ffffffff168063010c5c97146100ae5780630c11dedd14610109578063110466ed1461013f5780631a8618651461016e5780636fbb8798146101b25780639058e228146101f5578063b60d428814610239578063bdfd987714610243578063cd905dff1461029e578063f53b6d65146102cd575b6100ac610328565b005b3480156100ba57600080fd5b506100ef600480360381019080803573ffffffffffffffffffffffffffffffffffffffff16906020019092919050505061032a565b604051808215151515815260200191505060405180910390f35b61013d600480360381019080803573ffffffffffffffffffffffffffffffffffffffff169060200190929190505050610383565b005b34801561014b57600080fd5b5061016c60048036038101908080351515906020019092919050505061054a565b005b6101b0600480360381019080803573ffffffffffffffffffffffffffffffffffffffff16906020019092919080356000191690602001909291905050506106dc565b005b3480156101be57600080fd5b506101f3600480360381019080803573ffffffffffffffffffffffffffffffffffffffff169060200190929190505050610773565b005b610237600480360381019080803573ffffffffffffffffffffffffffffffffffffffff169060200190929190803560001916906020019092919050505061087b565b005b610241610328565b005b34801561024f57600080fd5b50610284600480360381019080803573ffffffffffffffffffffffffffffffffffffffff1690602001909291905050506109c3565b604051808215151515815260200191505060405180910390f35b3480156102aa57600080fd5b506102b3610c4d565b604051808215151515815260200191505060405180910390f35b3480156102d957600080fd5b5061030e600480360381019080803573ffffffffffffffffffffffffffffffffffffffff169060200190929190505050610c63565b604051808215151515815260200191505060405180910390f35b565b6000600260008373ffffffffffffffffffffffffffffffffffffffff1673ffffffffffffffffffffffffffffffffffffffff16815260200190815260200160002060000160009054906101000a900460ff169050919050565b6000600460008373ffffffffffffffffffffffffffffffffffffffff1673ffffffffffffffffffffffffffffffffffffffff168152602001908152602001600020543073ffffffffffffffffffffffffffffffffffffffff1631111515610478576040517f08c379a000000000000000000000000000000000000000000000000000000000815260040180806020018281038252602e8152602001807f4572726f723a20496e73756666696369656e742066756e647320746f2072656681526020017f756e642070617373656e6765722e00000000000000000000000000000000000081525060400191505060405180910390fd5b600460008373ffffffffffffffffffffffffffffffffffffffff1673ffffffffffffffffffffffffffffffffffffffff1681526020019081526020016000205490506000600460008473ffffffffffffffffffffffffffffffffffffffff1673ffffffffffffffffffffffffffffffffffffffff168152602001908152602001600020819055503373ffffffffffffffffffffffffffffffffffffffff166108fc829081150290604051600060405180830381858888f19350505050158015610545573d6000803e3d6000fd5b505050565b6000809054906101000a900473ffffffffffffffffffffffffffffffffffffffff1673ffffffffffffffffffffffffffffffffffffffff163373ffffffffffffffffffffffffffffffffffffffff1614151561060e576040517f08c379a000000000000000000000000000000000000000000000000000000000815260040180806020018281038252601c8152602001807f43616c6c6572206973206e6f7420636f6e7472616374206f776e65720000000081525060200191505060405180910390fd5b801515600060149054906101000a900460ff161515141515156106bf576040517f08c379a00000000000000000000000000000000000000000000000000000000081526004018080602001828103825260348152602001807f4572726f723a204f7065726174696e672053746174757320697320616c72656181526020017f64792073657420746f2074686973206d6f64652e00000000000000000000000081525060400191505060405180910390fd5b80600060146101000a81548160ff02191690831515021790555050565b6000806003600084600019166000191681526020019081526020016000206001015491506107276002610719600385610cbc90919063ffffffff16565b610cf490919063ffffffff16565b905080600460008673ffffffffffffffffffffffffffffffffffffffff1673ffffffffffffffffffffffffffffffffffffffff1681526020019081526020016000208190555050505050565b600060149054906101000a900460ff16151561081d576040517f08c379a00000000000000000000000000000000000000000000000000000000081526004018080602001828103825260258152602001807f436f6e74726163742069732063757272656e746c79206e6f74206f706572617481526020017f696f6e616c00000000000000000000000000000000000000000000000000000081525060400191505060405180910390fd5b6001600260008373ffffffffffffffffffffffffffffffffffffffff1673ffffffffffffffffffffffffffffffffffffffff16815260200190815260200160002060000160016101000a81548160ff02191690831515021790555050565b600060149054906101000a900460ff161515610925576040517f08c379a00000000000000000000000000000000000000000000000000000000081526004018080602001828103825260258152602001807f436f6e74726163742069732063757272656e746c79206e6f74206f706572617481526020017f696f6e616c00000000000000000000000000000000000000000000000000000081525060400191505060405180910390fd5b60408051908101604052803373ffffffffffffffffffffffffffffffffffffffff1681526020013481525060036000836000191660001916815260200190815260200160002060008201518160000160006101000a81548173ffffffffffffffffffffffffffffffffffffffff021916908373ffffffffffffffffffffffffffffffffffffffff160217905550602082015181600101559050505050565b60008060149054906101000a900460ff161515610a6e576040517f08c379a00000000000000000000000000000000000000000000000000000000081526004018080602001828103825260258152602001807f436f6e74726163742069732063757272656e746c79206e6f74206f706572617481526020017f696f6e616c00000000000000000000000000000000000000000000000000000081525060400191505060405180910390fd5b600260008373ffffffffffffffffffffffffffffffffffffffff1673ffffffffffffffffffffffffffffffffffffffff16815260200190815260200160002060000160009054906101000a900460ff16151515610b59576040517f08c379a000000000000000000000000000000000000000000000000000000000815260040180806020018281038252602b8152602001807f4572726f723a204169726c696e652068617320616c7265616479206265656e2081526020017f726567697374657265642e00000000000000000000000000000000000000000081525060400191505060405180910390fd5b604080519081016040528060011515815260200160001515815250600260008473ffffffffffffffffffffffffffffffffffffffff1673ffffffffffffffffffffffffffffffffffffffff16815260200190815260200160002060008201518160000160006101000a81548160ff02191690831515021790555060208201518160000160016101000a81548160ff021916908315150217905550905050600260008373ffffffffffffffffffffffffffffffffffffffff1673ffffffffffffffffffffffffffffffffffffffff16815260200190815260200160002060000160009054906101000a900460ff169050919050565b60008060149054906101000a900460ff16905090565b6000600260008373ffffffffffffffffffffffffffffffffffffffff1673ffffffffffffffffffffffffffffffffffffffff16815260200190815260200160002060000160019054906101000a900460ff169050919050565b600080831415610ccf5760009050610cee565b8183029050818382811515610ce057fe5b04141515610cea57fe5b8090505b92915050565b60008183811515610d0157fe5b049050929150505600a165627a7a7230582074f24cfce6b733919f0ceef3619ac458d751b43752ec8a3fbf5dc8a7a70995470029",
  "source": "pragma solidity ^0.4.25;\n\nimport \"../node_modules/openzeppelin-solidity/contracts/math/SafeMath.sol\";\n\ncontract FlightSuretyData {\n    using SafeMath for uint256;\n\n    /********************************************************************************************/\n    /*                                       DATA VARIABLES                                     */\n    /********************************************************************************************/\n\n    address private contractOwner;                                      // Account used to deploy contract\n    bool private operational = true;                                    // Blocks all state changes throughout the contract if false\n\n    // Mapping for authorized callers.\n    mapping(address => bool) private authorizedCallers;\n\n    // Airline Datastructures.\n    struct Airline {\n        bool isRegistered;\n        bool isFunded;\n    }\n\n    mapping(address => Airline) private airlines;\n\n    // Insurance datastructures.\n    struct FlightInsurance {\n        address passenger;\n        uint256 value;\n    }\n\n    mapping(bytes32 => FlightInsurance) flightInsurances;\n    mapping(address => uint256) private passengerBalances;\n\n    /********************************************************************************************/\n    /*                                       EVENT DEFINITIONS                                  */\n    /********************************************************************************************/\n\n\n    /**\n    * @dev Constructor\n    *      The deploying account becomes contractOwner\n    */\n    constructor\n                                (\n                                    address firstAirline\n                                )\n                                public\n    {\n        contractOwner = msg.sender;\n        // Instantiate first airline.\n        airlines[firstAirline] = Airline({\n            isRegistered: true,\n            isFunded: false\n        });\n    }\n\n    /********************************************************************************************/\n    /*                                       FUNCTION MODIFIERS                                 */\n    /********************************************************************************************/\n\n    // Modifiers help avoid duplication of code. They are typically used to validate something\n    // before a function is allowed to be executed.\n\n    /**\n    * @dev Modifier that requires the \"operational\" boolean variable to be \"true\"\n    *      This is used on all state changing functions to pause the contract in\n    *      the event there is an issue that needs to be fixed\n    */\n    modifier requireIsOperational()\n    {\n        require(operational, \"Contract is currently not operational\");\n        _;  // All modifiers require an \"_\" which indicates where the function body will be added\n    }\n\n    /**\n    * @dev Modifier that requires the \"ContractOwner\" account to be the function caller\n    */\n    modifier requireContractOwner()\n    {\n        require(msg.sender == contractOwner, \"Caller is not contract owner\");\n        _;\n    }\n\n    /**\n    *@dev Modifier that check if caller is authorized\n    */\n    modifier requireAuthorizedCaller(address caller)\n    {\n        require(authorizedCallers[caller], \"Caller is not authorized\");\n        _;\n    }\n\n    /**\n    *@dev Modifier that check if airline is registered.\n    */\n    modifier requireIsAirlineRegistered()\n    {\n        require(airlines[msg.sender].isRegistered, \"Error: Airline is not registered.\");\n        _;\n    }\n\n    /**\n    *@dev Modifier that check if caller is authorized\n    */\n    modifier requireIsAirlineFunded()\n    {\n        require(airlines[msg.sender].isFunded, \"Error: Airline has not offered seed funding.\");\n        _;\n    }\n\n    /********************************************************************************************/\n    /*                                       UTILITY FUNCTIONS                                  */\n    /********************************************************************************************/\n\n    /**\n    * @dev Get operating status of contract\n    *\n    * @return A bool that is the current operating status\n    */\n    function isOperational()\n                            public\n                            view\n                            returns(bool)\n    {\n        return operational;\n    }\n\n\n    /**\n    * @dev Sets contract operations on/off\n    *\n    * When operational mode is disabled, all write transactions except for this one will fail\n    */\n    function setOperatingStatus\n                            (\n                                bool mode\n                            )\n                            external\n                            requireContractOwner\n    {\n        // Fail fast for setting operating status.\n        require(operational != mode, \"Error: Operating Status is already set to this mode.\");\n        operational = mode;\n    }\n\n    /********************************************************************************************/\n    /*                                     SMART CONTRACT FUNCTIONS                             */\n    /********************************************************************************************/\n\n    /********************************************************************************************/\n    /*                                     AIRLINE FUNCTIONS                                    */\n    /********************************************************************************************/\n\n   /**\n    * @dev Add an airline to the registration queue\n    *      Can only be called from FlightSuretyApp contract\n    *\n    */\n    function registerAirline\n                            (\n                                address newAirline\n                            )\n                            external\n                            requireIsOperational\n                            returns (bool)\n    {\n        // Verify airline has not already been registered.\n        require(!airlines[newAirline].isRegistered, \"Error: Airline has already been registered.\");\n        // Add new airline.\n        airlines[newAirline] = Airline({\n            isRegistered: true,\n            isFunded: false\n        });\n        // Return true boolean is successful.\n        return airlines[newAirline].isRegistered;\n    }\n\n    /**\n    * @dev Airline has successfully offered funding.\n    *\n    */\n    function fundAirline\n                            (\n                                address airlineAddress\n                            )\n                            external\n                            requireIsOperational\n    {\n        // Set isFunded boolean to true.\n        airlines[airlineAddress].isFunded = true;\n    }\n\n    /**\n    * @dev Returns isRegistered boolean\n    *\n    */\n    function isAirlineRegistered(address airlineAddress) external view returns(bool) {\n        return airlines[airlineAddress].isRegistered;\n    }\n\n    /**\n    * @dev Returns isFunded boolean\n    *\n    */\n    function isAirlineFunded(address airlineAddress) external view returns(bool) {\n        return airlines[airlineAddress].isFunded;\n    }\n\n    /********************************************************************************************/\n    /*                                   PASSENGER FUNCTIONS                                    */\n    /********************************************************************************************/\n\n   /**\n    * @dev Buy insurance for a flight\n    *\n    */\n    function buy\n                            (\n                                address passenger,\n                                bytes32 flightKey\n                            )\n                            external\n                            payable\n                            requireIsOperational\n    {\n        // Create flight insurance.\n        flightInsurances[flightKey] = FlightInsurance({\n            passenger: msg.sender,\n            value: msg.value\n        });\n    }\n\n    /**\n     *  @dev Credits payouts to insurees\n    */\n    function creditInsurees\n                                (\n                                    address passenger,\n                                    bytes32 flightKey\n                                )\n                                external\n                                payable\n    {\n        // Obtain flight insurance balance.\n        uint256 passengerInsurance = flightInsurances[flightKey].value;\n        // Calculate return amount (1.5x)\n        uint256 returnAmount = passengerInsurance.mul(3).div(2);\n        // Credit passenger with new amount.\n        passengerBalances[passenger] = returnAmount;\n    }\n\n    \n    \n\n    /**\n     *  @dev Transfers eligible payout funds to insuree\n     *\n    */\n    function pay\n                            (\n                                address passengerAddress\n                            )\n                            external\n                            payable\n    {\n        // Payment Protection.\n        require(address(this).balance > passengerBalances[passengerAddress], \"Error: Insufficient funds to refund passenger.\");\n        uint256 prev = passengerBalances[passengerAddress];\n        passengerBalances[passengerAddress] = 0;\n        msg.sender.transfer(prev);\n    }\n\n   /**\n    * @dev Initial funding for the insurance. Unless there are too many delayed flights\n    *      resulting in insurance payouts, the contract should be self-sustaining\n    *\n    */   \n    function fund\n                            (   \n                            )\n                            public\n                            payable\n    {\n    }\n\n    function getFlightKey\n                        (\n                            address airline,\n                            string memory flight,\n                            uint256 timestamp\n                        )\n                        pure\n                        internal\n                        returns(bytes32) \n    {\n        return keccak256(abi.encodePacked(airline, flight, timestamp));\n    }\n\n    /**\n    * @dev Fallback function for funding smart contract.\n    *\n    */\n    function() \n                            external \n                            payable \n    {\n        fund();\n    }\n\n\n}\n\n",
  "sourcePath": "/Users/bradbehrens/Desktop/FlightSurety-DApp/contracts/FlightSuretyData.sol",
  "compiler": {
    "name": "solc",
    "version": "0.4.26+commit.4563c3fc.Emscripten.clang"
  },
  "schemaVersion": "3.0.19",
  "updatedAt": "2020-02-08T11:37:30.248Z",
  "networkType": "ethereum",
  "devdoc": {
    "methods": {
      "buy(address,bytes32)": {
        "details": "Buy insurance for a flight    "
      },
      "creditInsurees(address,bytes32)": {
        "details": "Credits payouts to insurees"
      },
      "fund()": {
        "details": "Initial funding for the insurance. Unless there are too many delayed flights     resulting in insurance payouts, the contract should be self-sustaining    "
      },
      "fundAirline(address)": {
        "details": "Airline has successfully offered funding.    "
      },
      "isAirlineFunded(address)": {
        "details": "Returns isFunded boolean    "
      },
      "isAirlineRegistered(address)": {
        "details": "Returns isRegistered boolean    "
      },
      "isOperational()": {
        "details": "Get operating status of contract",
        "return": "A bool that is the current operating status"
      },
      "pay(address)": {
        "details": "Transfers eligible payout funds to insuree    "
      },
      "registerAirline(address)": {
        "details": "Add an airline to the registration queue     Can only be called from FlightSuretyApp contract    "
      },
      "setOperatingStatus(bool)": {
        "details": "Sets contract operations on/off    * When operational mode is disabled, all write transactions except for this one will fail"
      }
    }
  },
  "userdoc": {
    "methods": {}
  }
}